{
	"Learning-Solidity/contracts/Modifiers.sol": {
		"PausableToken": {
			"abi": [
				{
					"inputs": [],
					"stateMutability": "nonpayable",
					"type": "constructor"
				},
				{
					"inputs": [
						{
							"internalType": "address",
							"name": "",
							"type": "address"
						}
					],
					"name": "balances",
					"outputs": [
						{
							"internalType": "uint256",
							"name": "",
							"type": "uint256"
						}
					],
					"stateMutability": "view",
					"type": "function"
				},
				{
					"inputs": [],
					"name": "owner",
					"outputs": [
						{
							"internalType": "address",
							"name": "",
							"type": "address"
						}
					],
					"stateMutability": "view",
					"type": "function"
				},
				{
					"inputs": [],
					"name": "pause",
					"outputs": [],
					"stateMutability": "nonpayable",
					"type": "function"
				},
				{
					"inputs": [],
					"name": "paused",
					"outputs": [
						{
							"internalType": "bool",
							"name": "",
							"type": "bool"
						}
					],
					"stateMutability": "view",
					"type": "function"
				},
				{
					"inputs": [
						{
							"internalType": "address",
							"name": "to",
							"type": "address"
						},
						{
							"internalType": "uint256",
							"name": "amount",
							"type": "uint256"
						}
					],
					"name": "transfer",
					"outputs": [],
					"stateMutability": "nonpayable",
					"type": "function"
				},
				{
					"inputs": [],
					"name": "unpause",
					"outputs": [],
					"stateMutability": "nonpayable",
					"type": "function"
				}
			],
			"devdoc": {
				"kind": "dev",
				"methods": {},
				"version": 1
			},
			"evm": {
				"assembly": "    /* \"Learning-Solidity/contracts/Modifiers.sol\":141:2164  contract PausableToken {... */\n  mstore(0x40, 0x80)\n    /* \"Learning-Solidity/contracts/Modifiers.sol\":351:460  constructor() {... */\n  callvalue\n  dup1\n  iszero\n  tag_1\n  jumpi\n  revert(0x00, 0x00)\ntag_1:\n  pop\n    /* \"Learning-Solidity/contracts/Modifiers.sol\":384:394  msg.sender */\n  caller\n    /* \"Learning-Solidity/contracts/Modifiers.sol\":376:381  owner */\n  0x00\n  0x00\n    /* \"Learning-Solidity/contracts/Modifiers.sol\":376:394  owner = msg.sender */\n  0x0100\n  exp\n  dup2\n  sload\n  dup2\n  0xffffffffffffffffffffffffffffffffffffffff\n  mul\n  not\n  and\n  swap1\n  dup4\n  0xffffffffffffffffffffffffffffffffffffffff\n  and\n  mul\n  or\n  swap1\n  sstore\n  pop\n    /* \"Learning-Solidity/contracts/Modifiers.sol\":414:419  false */\n  0x00\n    /* \"Learning-Solidity/contracts/Modifiers.sol\":405:411  paused */\n  0x00\n  0x14\n    /* \"Learning-Solidity/contracts/Modifiers.sol\":405:419  paused = false */\n  0x0100\n  exp\n  dup2\n  sload\n  dup2\n  0xff\n  mul\n  not\n  and\n  swap1\n  dup4\n  iszero\n  iszero\n  mul\n  or\n  swap1\n  sstore\n  pop\n    /* \"Learning-Solidity/contracts/Modifiers.sol\":448:452  1000 */\n  0x03e8\n    /* \"Learning-Solidity/contracts/Modifiers.sol\":430:438  balances */\n  0x01\n    /* \"Learning-Solidity/contracts/Modifiers.sol\":430:445  balances[owner] */\n  0x00\n    /* \"Learning-Solidity/contracts/Modifiers.sol\":439:444  owner */\n  0x00\n  0x00\n  swap1\n  sload\n  swap1\n  0x0100\n  exp\n  swap1\n  div\n  0xffffffffffffffffffffffffffffffffffffffff\n  and\n    /* \"Learning-Solidity/contracts/Modifiers.sol\":430:445  balances[owner] */\n  0xffffffffffffffffffffffffffffffffffffffff\n  and\n  0xffffffffffffffffffffffffffffffffffffffff\n  and\n  dup2\n  mstore\n  0x20\n  add\n  swap1\n  dup2\n  mstore\n  0x20\n  add\n  0x00\n  keccak256\n    /* \"Learning-Solidity/contracts/Modifiers.sol\":430:452  balances[owner] = 1000 */\n  dup2\n  swap1\n  sstore\n  pop\n    /* \"Learning-Solidity/contracts/Modifiers.sol\":141:2164  contract PausableToken {... */\n  dataSize(sub_0)\n  dup1\n  dataOffset(sub_0)\n  0x00\n  codecopy\n  0x00\n  return\nstop\n\nsub_0: assembly {\n        /* \"Learning-Solidity/contracts/Modifiers.sol\":141:2164  contract PausableToken {... */\n      mstore(0x40, 0x80)\n      callvalue\n      dup1\n      iszero\n      tag_1\n      jumpi\n      revert(0x00, 0x00)\n    tag_1:\n      pop\n      jumpi(tag_2, lt(calldatasize, 0x04))\n      shr(0xe0, calldataload(0x00))\n      dup1\n      0x27e235e3\n      eq\n      tag_3\n      jumpi\n      dup1\n      0x3f4ba83a\n      eq\n      tag_4\n      jumpi\n      dup1\n      0x5c975abb\n      eq\n      tag_5\n      jumpi\n      dup1\n      0x8456cb59\n      eq\n      tag_6\n      jumpi\n      dup1\n      0x8da5cb5b\n      eq\n      tag_7\n      jumpi\n      dup1\n      0xa9059cbb\n      eq\n      tag_8\n      jumpi\n    tag_2:\n      revert(0x00, 0x00)\n        /* \"Learning-Solidity/contracts/Modifiers.sol\":301:342  mapping (address => uint) public balances */\n    tag_3:\n      tag_9\n      0x04\n      dup1\n      calldatasize\n      sub\n      dup2\n      add\n      swap1\n      tag_10\n      swap2\n      swap1\n      tag_11\n      jump\t// in\n    tag_10:\n      tag_12\n      jump\t// in\n    tag_9:\n      mload(0x40)\n      tag_13\n      swap2\n      swap1\n      tag_14\n      jump\t// in\n    tag_13:\n      mload(0x40)\n      dup1\n      swap2\n      sub\n      swap1\n      return\n        /* \"Learning-Solidity/contracts/Modifiers.sol\":1625:1694  function unpause() public onlyOwner {... */\n    tag_4:\n      tag_15\n      tag_16\n      jump\t// in\n    tag_15:\n      stop\n        /* \"Learning-Solidity/contracts/Modifiers.sol\":276:294  bool public paused */\n    tag_5:\n      tag_17\n      tag_18\n      jump\t// in\n    tag_17:\n      mload(0x40)\n      tag_19\n      swap2\n      swap1\n      tag_20\n      jump\t// in\n    tag_19:\n      mload(0x40)\n      dup1\n      swap2\n      sub\n      swap1\n      return\n        /* \"Learning-Solidity/contracts/Modifiers.sol\":1463:1529  function pause() public onlyOwner {... */\n    tag_6:\n      tag_21\n      tag_22\n      jump\t// in\n    tag_21:\n      stop\n        /* \"Learning-Solidity/contracts/Modifiers.sol\":173:193  address public owner */\n    tag_7:\n      tag_23\n      tag_24\n      jump\t// in\n    tag_23:\n      mload(0x40)\n      tag_25\n      swap2\n      swap1\n      tag_26\n      jump\t// in\n    tag_25:\n      mload(0x40)\n      dup1\n      swap2\n      sub\n      swap1\n      return\n        /* \"Learning-Solidity/contracts/Modifiers.sol\":1798:2160  function transfer(address to, uint amount) public notPaused{... */\n    tag_8:\n      tag_27\n      0x04\n      dup1\n      calldatasize\n      sub\n      dup2\n      add\n      swap1\n      tag_28\n      swap2\n      swap1\n      tag_29\n      jump\t// in\n    tag_28:\n      tag_30\n      jump\t// in\n    tag_27:\n      stop\n        /* \"Learning-Solidity/contracts/Modifiers.sol\":301:342  mapping (address => uint) public balances */\n    tag_12:\n      mstore(0x20, 0x01)\n      dup1\n      0x00\n      mstore\n      keccak256(0x00, 0x40)\n      0x00\n      swap2\n      pop\n      swap1\n      pop\n      sload\n      dup2\n      jump\t// out\n        /* \"Learning-Solidity/contracts/Modifiers.sol\":1625:1694  function unpause() public onlyOwner {... */\n    tag_16:\n        /* \"Learning-Solidity/contracts/Modifiers.sol\":1208:1213  owner */\n      0x00\n      0x00\n      swap1\n      sload\n      swap1\n      0x0100\n      exp\n      swap1\n      div\n      0xffffffffffffffffffffffffffffffffffffffff\n      and\n        /* \"Learning-Solidity/contracts/Modifiers.sol\":1194:1213  msg.sender == owner */\n      0xffffffffffffffffffffffffffffffffffffffff\n      and\n        /* \"Learning-Solidity/contracts/Modifiers.sol\":1194:1204  msg.sender */\n      caller\n        /* \"Learning-Solidity/contracts/Modifiers.sol\":1194:1213  msg.sender == owner */\n      0xffffffffffffffffffffffffffffffffffffffff\n      and\n      eq\n        /* \"Learning-Solidity/contracts/Modifiers.sol\":1186:1239  require(msg.sender == owner, \"You are not the owner\") */\n      tag_32\n      jumpi\n      mload(0x40)\n      0x08c379a000000000000000000000000000000000000000000000000000000000\n      dup2\n      mstore\n      0x04\n      add\n      tag_33\n      swap1\n      tag_34\n      jump\t// in\n    tag_33:\n      mload(0x40)\n      dup1\n      swap2\n      sub\n      swap1\n      revert\n    tag_32:\n        /* \"Learning-Solidity/contracts/Modifiers.sol\":1681:1686  false */\n      0x00\n        /* \"Learning-Solidity/contracts/Modifiers.sol\":1672:1678  paused */\n      0x00\n      0x14\n        /* \"Learning-Solidity/contracts/Modifiers.sol\":1672:1686  paused = false */\n      0x0100\n      exp\n      dup2\n      sload\n      dup2\n      0xff\n      mul\n      not\n      and\n      swap1\n      dup4\n      iszero\n      iszero\n      mul\n      or\n      swap1\n      sstore\n      pop\n        /* \"Learning-Solidity/contracts/Modifiers.sol\":1625:1694  function unpause() public onlyOwner {... */\n      jump\t// out\n        /* \"Learning-Solidity/contracts/Modifiers.sol\":276:294  bool public paused */\n    tag_18:\n      0x00\n      0x14\n      swap1\n      sload\n      swap1\n      0x0100\n      exp\n      swap1\n      div\n      0xff\n      and\n      dup2\n      jump\t// out\n        /* \"Learning-Solidity/contracts/Modifiers.sol\":1463:1529  function pause() public onlyOwner {... */\n    tag_22:\n        /* \"Learning-Solidity/contracts/Modifiers.sol\":1208:1213  owner */\n      0x00\n      0x00\n      swap1\n      sload\n      swap1\n      0x0100\n      exp\n      swap1\n      div\n      0xffffffffffffffffffffffffffffffffffffffff\n      and\n        /* \"Learning-Solidity/contracts/Modifiers.sol\":1194:1213  msg.sender == owner */\n      0xffffffffffffffffffffffffffffffffffffffff\n      and\n        /* \"Learning-Solidity/contracts/Modifiers.sol\":1194:1204  msg.sender */\n      caller\n        /* \"Learning-Solidity/contracts/Modifiers.sol\":1194:1213  msg.sender == owner */\n      0xffffffffffffffffffffffffffffffffffffffff\n      and\n      eq\n        /* \"Learning-Solidity/contracts/Modifiers.sol\":1186:1239  require(msg.sender == owner, \"You are not the owner\") */\n      tag_37\n      jumpi\n      mload(0x40)\n      0x08c379a000000000000000000000000000000000000000000000000000000000\n      dup2\n      mstore\n      0x04\n      add\n      tag_38\n      swap1\n      tag_34\n      jump\t// in\n    tag_38:\n      mload(0x40)\n      dup1\n      swap2\n      sub\n      swap1\n      revert\n    tag_37:\n        /* \"Learning-Solidity/contracts/Modifiers.sol\":1517:1521  true */\n      0x01\n        /* \"Learning-Solidity/contracts/Modifiers.sol\":1508:1514  paused */\n      0x00\n      0x14\n        /* \"Learning-Solidity/contracts/Modifiers.sol\":1508:1521  paused = true */\n      0x0100\n      exp\n      dup2\n      sload\n      dup2\n      0xff\n      mul\n      not\n      and\n      swap1\n      dup4\n      iszero\n      iszero\n      mul\n      or\n      swap1\n      sstore\n      pop\n        /* \"Learning-Solidity/contracts/Modifiers.sol\":1463:1529  function pause() public onlyOwner {... */\n      jump\t// out\n        /* \"Learning-Solidity/contracts/Modifiers.sol\":173:193  address public owner */\n    tag_24:\n      0x00\n      0x00\n      swap1\n      sload\n      swap1\n      0x0100\n      exp\n      swap1\n      div\n      0xffffffffffffffffffffffffffffffffffffffff\n      and\n      dup2\n      jump\t// out\n        /* \"Learning-Solidity/contracts/Modifiers.sol\":1798:2160  function transfer(address to, uint amount) public notPaused{... */\n    tag_30:\n        /* \"Learning-Solidity/contracts/Modifiers.sol\":1317:1322  false */\n      0x00\n        /* \"Learning-Solidity/contracts/Modifiers.sol\":1307:1322  paused == false */\n      iszero\n      iszero\n        /* \"Learning-Solidity/contracts/Modifiers.sol\":1307:1313  paused */\n      0x00\n      0x14\n      swap1\n      sload\n      swap1\n      0x0100\n      exp\n      swap1\n      div\n      0xff\n      and\n        /* \"Learning-Solidity/contracts/Modifiers.sol\":1307:1322  paused == false */\n      iszero\n      iszero\n      eq\n        /* \"Learning-Solidity/contracts/Modifiers.sol\":1299:1349  require(paused == false, \"The contract is paused\") */\n      tag_41\n      jumpi\n      mload(0x40)\n      0x08c379a000000000000000000000000000000000000000000000000000000000\n      dup2\n      mstore\n      0x04\n      add\n      tag_42\n      swap1\n      tag_43\n      jump\t// in\n    tag_42:\n      mload(0x40)\n      dup1\n      swap2\n      sub\n      swap1\n      revert\n    tag_41:\n        /* \"Learning-Solidity/contracts/Modifiers.sol\":1957:1959  to */\n      dup2\n        /* \"Learning-Solidity/contracts/Modifiers.sol\":1943:1959  msg.sender != to */\n      0xffffffffffffffffffffffffffffffffffffffff\n      and\n        /* \"Learning-Solidity/contracts/Modifiers.sol\":1943:1953  msg.sender */\n      caller\n        /* \"Learning-Solidity/contracts/Modifiers.sol\":1943:1959  msg.sender != to */\n      0xffffffffffffffffffffffffffffffffffffffff\n      and\n      sub\n        /* \"Learning-Solidity/contracts/Modifiers.sol\":1935:1995  require(msg.sender != to, \"You cant transact with yourself\") */\n      tag_45\n      jumpi\n      mload(0x40)\n      0x08c379a000000000000000000000000000000000000000000000000000000000\n      dup2\n      mstore\n      0x04\n      add\n      tag_46\n      swap1\n      tag_47\n      jump\t// in\n    tag_46:\n      mload(0x40)\n      dup1\n      swap2\n      sub\n      swap1\n      revert\n    tag_45:\n        /* \"Learning-Solidity/contracts/Modifiers.sol\":2038:2044  amount */\n      dup1\n        /* \"Learning-Solidity/contracts/Modifiers.sol\":2014:2022  balances */\n      0x01\n        /* \"Learning-Solidity/contracts/Modifiers.sol\":2014:2034  balances[msg.sender] */\n      0x00\n        /* \"Learning-Solidity/contracts/Modifiers.sol\":2023:2033  msg.sender */\n      caller\n        /* \"Learning-Solidity/contracts/Modifiers.sol\":2014:2034  balances[msg.sender] */\n      0xffffffffffffffffffffffffffffffffffffffff\n      and\n      0xffffffffffffffffffffffffffffffffffffffff\n      and\n      dup2\n      mstore\n      0x20\n      add\n      swap1\n      dup2\n      mstore\n      0x20\n      add\n      0x00\n      keccak256\n      sload\n        /* \"Learning-Solidity/contracts/Modifiers.sol\":2014:2044  balances[msg.sender] >= amount */\n      lt\n      iszero\n        /* \"Learning-Solidity/contracts/Modifiers.sol\":2006:2068  require(balances[msg.sender] >= amount, \"Insuficient balance\") */\n      tag_48\n      jumpi\n      mload(0x40)\n      0x08c379a000000000000000000000000000000000000000000000000000000000\n      dup2\n      mstore\n      0x04\n      add\n      tag_49\n      swap1\n      tag_50\n      jump\t// in\n    tag_49:\n      mload(0x40)\n      dup1\n      swap2\n      sub\n      swap1\n      revert\n    tag_48:\n        /* \"Learning-Solidity/contracts/Modifiers.sol\":2113:2119  amount */\n      dup1\n        /* \"Learning-Solidity/contracts/Modifiers.sol\":2089:2097  balances */\n      0x01\n        /* \"Learning-Solidity/contracts/Modifiers.sol\":2089:2109  balances[msg.sender] */\n      0x00\n        /* \"Learning-Solidity/contracts/Modifiers.sol\":2098:2108  msg.sender */\n      caller\n        /* \"Learning-Solidity/contracts/Modifiers.sol\":2089:2109  balances[msg.sender] */\n      0xffffffffffffffffffffffffffffffffffffffff\n      and\n      0xffffffffffffffffffffffffffffffffffffffff\n      and\n      dup2\n      mstore\n      0x20\n      add\n      swap1\n      dup2\n      mstore\n      0x20\n      add\n      0x00\n      keccak256\n      0x00\n        /* \"Learning-Solidity/contracts/Modifiers.sol\":2089:2119  balances[msg.sender] -= amount */\n      dup3\n      dup3\n      sload\n      tag_51\n      swap2\n      swap1\n      tag_52\n      jump\t// in\n    tag_51:\n      swap3\n      pop\n      pop\n      dup2\n      swap1\n      sstore\n      pop\n        /* \"Learning-Solidity/contracts/Modifiers.sol\":2146:2152  amount */\n      dup1\n        /* \"Learning-Solidity/contracts/Modifiers.sol\":2130:2138  balances */\n      0x01\n        /* \"Learning-Solidity/contracts/Modifiers.sol\":2130:2142  balances[to] */\n      0x00\n        /* \"Learning-Solidity/contracts/Modifiers.sol\":2139:2141  to */\n      dup5\n        /* \"Learning-Solidity/contracts/Modifiers.sol\":2130:2142  balances[to] */\n      0xffffffffffffffffffffffffffffffffffffffff\n      and\n      0xffffffffffffffffffffffffffffffffffffffff\n      and\n      dup2\n      mstore\n      0x20\n      add\n      swap1\n      dup2\n      mstore\n      0x20\n      add\n      0x00\n      keccak256\n      0x00\n        /* \"Learning-Solidity/contracts/Modifiers.sol\":2130:2152  balances[to] += amount */\n      dup3\n      dup3\n      sload\n      tag_53\n      swap2\n      swap1\n      tag_54\n      jump\t// in\n    tag_53:\n      swap3\n      pop\n      pop\n      dup2\n      swap1\n      sstore\n      pop\n        /* \"Learning-Solidity/contracts/Modifiers.sol\":1798:2160  function transfer(address to, uint amount) public notPaused{... */\n      pop\n      pop\n      jump\t// out\n        /* \"#utility.yul\":88:205   */\n    tag_56:\n        /* \"#utility.yul\":197:198   */\n      0x00\n        /* \"#utility.yul\":194:195   */\n      0x00\n        /* \"#utility.yul\":187:199   */\n      revert\n        /* \"#utility.yul\":334:460   */\n    tag_58:\n        /* \"#utility.yul\":371:378   */\n      0x00\n        /* \"#utility.yul\":411:453   */\n      0xffffffffffffffffffffffffffffffffffffffff\n        /* \"#utility.yul\":404:409   */\n      dup3\n        /* \"#utility.yul\":400:454   */\n      and\n        /* \"#utility.yul\":389:454   */\n      swap1\n      pop\n        /* \"#utility.yul\":334:460   */\n      swap2\n      swap1\n      pop\n      jump\t// out\n        /* \"#utility.yul\":466:562   */\n    tag_59:\n        /* \"#utility.yul\":503:510   */\n      0x00\n        /* \"#utility.yul\":532:556   */\n      tag_85\n        /* \"#utility.yul\":550:555   */\n      dup3\n        /* \"#utility.yul\":532:556   */\n      tag_58\n      jump\t// in\n    tag_85:\n        /* \"#utility.yul\":521:556   */\n      swap1\n      pop\n        /* \"#utility.yul\":466:562   */\n      swap2\n      swap1\n      pop\n      jump\t// out\n        /* \"#utility.yul\":568:690   */\n    tag_60:\n        /* \"#utility.yul\":641:665   */\n      tag_87\n        /* \"#utility.yul\":659:664   */\n      dup2\n        /* \"#utility.yul\":641:665   */\n      tag_59\n      jump\t// in\n    tag_87:\n        /* \"#utility.yul\":634:639   */\n      dup2\n        /* \"#utility.yul\":631:666   */\n      eq\n        /* \"#utility.yul\":621:684   */\n      tag_88\n      jumpi\n        /* \"#utility.yul\":680:681   */\n      0x00\n        /* \"#utility.yul\":677:678   */\n      0x00\n        /* \"#utility.yul\":670:682   */\n      revert\n        /* \"#utility.yul\":621:684   */\n    tag_88:\n        /* \"#utility.yul\":568:690   */\n      pop\n      jump\t// out\n        /* \"#utility.yul\":696:835   */\n    tag_61:\n        /* \"#utility.yul\":742:747   */\n      0x00\n        /* \"#utility.yul\":780:786   */\n      dup2\n        /* \"#utility.yul\":767:787   */\n      calldataload\n        /* \"#utility.yul\":758:787   */\n      swap1\n      pop\n        /* \"#utility.yul\":796:829   */\n      tag_90\n        /* \"#utility.yul\":823:828   */\n      dup2\n        /* \"#utility.yul\":796:829   */\n      tag_60\n      jump\t// in\n    tag_90:\n        /* \"#utility.yul\":696:835   */\n      swap3\n      swap2\n      pop\n      pop\n      jump\t// out\n        /* \"#utility.yul\":841:1170   */\n    tag_11:\n        /* \"#utility.yul\":900:906   */\n      0x00\n        /* \"#utility.yul\":949:951   */\n      0x20\n        /* \"#utility.yul\":937:946   */\n      dup3\n        /* \"#utility.yul\":928:935   */\n      dup5\n        /* \"#utility.yul\":924:947   */\n      sub\n        /* \"#utility.yul\":920:952   */\n      slt\n        /* \"#utility.yul\":917:1036   */\n      iszero\n      tag_92\n      jumpi\n        /* \"#utility.yul\":955:1034   */\n      tag_93\n      tag_56\n      jump\t// in\n    tag_93:\n        /* \"#utility.yul\":917:1036   */\n    tag_92:\n        /* \"#utility.yul\":1075:1076   */\n      0x00\n        /* \"#utility.yul\":1100:1153   */\n      tag_94\n        /* \"#utility.yul\":1145:1152   */\n      dup5\n        /* \"#utility.yul\":1136:1142   */\n      dup3\n        /* \"#utility.yul\":1125:1134   */\n      dup6\n        /* \"#utility.yul\":1121:1143   */\n      add\n        /* \"#utility.yul\":1100:1153   */\n      tag_61\n      jump\t// in\n    tag_94:\n        /* \"#utility.yul\":1090:1153   */\n      swap2\n      pop\n        /* \"#utility.yul\":1046:1163   */\n      pop\n        /* \"#utility.yul\":841:1170   */\n      swap3\n      swap2\n      pop\n      pop\n      jump\t// out\n        /* \"#utility.yul\":1176:1253   */\n    tag_62:\n        /* \"#utility.yul\":1213:1220   */\n      0x00\n        /* \"#utility.yul\":1242:1247   */\n      dup2\n        /* \"#utility.yul\":1231:1247   */\n      swap1\n      pop\n        /* \"#utility.yul\":1176:1253   */\n      swap2\n      swap1\n      pop\n      jump\t// out\n        /* \"#utility.yul\":1259:1377   */\n    tag_63:\n        /* \"#utility.yul\":1346:1370   */\n      tag_97\n        /* \"#utility.yul\":1364:1369   */\n      dup2\n        /* \"#utility.yul\":1346:1370   */\n      tag_62\n      jump\t// in\n    tag_97:\n        /* \"#utility.yul\":1341:1344   */\n      dup3\n        /* \"#utility.yul\":1334:1371   */\n      mstore\n        /* \"#utility.yul\":1259:1377   */\n      pop\n      pop\n      jump\t// out\n        /* \"#utility.yul\":1383:1605   */\n    tag_14:\n        /* \"#utility.yul\":1476:1480   */\n      0x00\n        /* \"#utility.yul\":1514:1516   */\n      0x20\n        /* \"#utility.yul\":1503:1512   */\n      dup3\n        /* \"#utility.yul\":1499:1517   */\n      add\n        /* \"#utility.yul\":1491:1517   */\n      swap1\n      pop\n        /* \"#utility.yul\":1527:1598   */\n      tag_99\n        /* \"#utility.yul\":1595:1596   */\n      0x00\n        /* \"#utility.yul\":1584:1593   */\n      dup4\n        /* \"#utility.yul\":1580:1597   */\n      add\n        /* \"#utility.yul\":1571:1577   */\n      dup5\n        /* \"#utility.yul\":1527:1598   */\n      tag_63\n      jump\t// in\n    tag_99:\n        /* \"#utility.yul\":1383:1605   */\n      swap3\n      swap2\n      pop\n      pop\n      jump\t// out\n        /* \"#utility.yul\":1611:1701   */\n    tag_64:\n        /* \"#utility.yul\":1645:1652   */\n      0x00\n        /* \"#utility.yul\":1688:1693   */\n      dup2\n        /* \"#utility.yul\":1681:1694   */\n      iszero\n        /* \"#utility.yul\":1674:1695   */\n      iszero\n        /* \"#utility.yul\":1663:1695   */\n      swap1\n      pop\n        /* \"#utility.yul\":1611:1701   */\n      swap2\n      swap1\n      pop\n      jump\t// out\n        /* \"#utility.yul\":1707:1816   */\n    tag_65:\n        /* \"#utility.yul\":1788:1809   */\n      tag_102\n        /* \"#utility.yul\":1803:1808   */\n      dup2\n        /* \"#utility.yul\":1788:1809   */\n      tag_64\n      jump\t// in\n    tag_102:\n        /* \"#utility.yul\":1783:1786   */\n      dup3\n        /* \"#utility.yul\":1776:1810   */\n      mstore\n        /* \"#utility.yul\":1707:1816   */\n      pop\n      pop\n      jump\t// out\n        /* \"#utility.yul\":1822:2032   */\n    tag_20:\n        /* \"#utility.yul\":1909:1913   */\n      0x00\n        /* \"#utility.yul\":1947:1949   */\n      0x20\n        /* \"#utility.yul\":1936:1945   */\n      dup3\n        /* \"#utility.yul\":1932:1950   */\n      add\n        /* \"#utility.yul\":1924:1950   */\n      swap1\n      pop\n        /* \"#utility.yul\":1960:2025   */\n      tag_104\n        /* \"#utility.yul\":2022:2023   */\n      0x00\n        /* \"#utility.yul\":2011:2020   */\n      dup4\n        /* \"#utility.yul\":2007:2024   */\n      add\n        /* \"#utility.yul\":1998:2004   */\n      dup5\n        /* \"#utility.yul\":1960:2025   */\n      tag_65\n      jump\t// in\n    tag_104:\n        /* \"#utility.yul\":1822:2032   */\n      swap3\n      swap2\n      pop\n      pop\n      jump\t// out\n        /* \"#utility.yul\":2038:2156   */\n    tag_66:\n        /* \"#utility.yul\":2125:2149   */\n      tag_106\n        /* \"#utility.yul\":2143:2148   */\n      dup2\n        /* \"#utility.yul\":2125:2149   */\n      tag_59\n      jump\t// in\n    tag_106:\n        /* \"#utility.yul\":2120:2123   */\n      dup3\n        /* \"#utility.yul\":2113:2150   */\n      mstore\n        /* \"#utility.yul\":2038:2156   */\n      pop\n      pop\n      jump\t// out\n        /* \"#utility.yul\":2162:2384   */\n    tag_26:\n        /* \"#utility.yul\":2255:2259   */\n      0x00\n        /* \"#utility.yul\":2293:2295   */\n      0x20\n        /* \"#utility.yul\":2282:2291   */\n      dup3\n        /* \"#utility.yul\":2278:2296   */\n      add\n        /* \"#utility.yul\":2270:2296   */\n      swap1\n      pop\n        /* \"#utility.yul\":2306:2377   */\n      tag_108\n        /* \"#utility.yul\":2374:2375   */\n      0x00\n        /* \"#utility.yul\":2363:2372   */\n      dup4\n        /* \"#utility.yul\":2359:2376   */\n      add\n        /* \"#utility.yul\":2350:2356   */\n      dup5\n        /* \"#utility.yul\":2306:2377   */\n      tag_66\n      jump\t// in\n    tag_108:\n        /* \"#utility.yul\":2162:2384   */\n      swap3\n      swap2\n      pop\n      pop\n      jump\t// out\n        /* \"#utility.yul\":2390:2512   */\n    tag_67:\n        /* \"#utility.yul\":2463:2487   */\n      tag_110\n        /* \"#utility.yul\":2481:2486   */\n      dup2\n        /* \"#utility.yul\":2463:2487   */\n      tag_62\n      jump\t// in\n    tag_110:\n        /* \"#utility.yul\":2456:2461   */\n      dup2\n        /* \"#utility.yul\":2453:2488   */\n      eq\n        /* \"#utility.yul\":2443:2506   */\n      tag_111\n      jumpi\n        /* \"#utility.yul\":2502:2503   */\n      0x00\n        /* \"#utility.yul\":2499:2500   */\n      0x00\n        /* \"#utility.yul\":2492:2504   */\n      revert\n        /* \"#utility.yul\":2443:2506   */\n    tag_111:\n        /* \"#utility.yul\":2390:2512   */\n      pop\n      jump\t// out\n        /* \"#utility.yul\":2518:2657   */\n    tag_68:\n        /* \"#utility.yul\":2564:2569   */\n      0x00\n        /* \"#utility.yul\":2602:2608   */\n      dup2\n        /* \"#utility.yul\":2589:2609   */\n      calldataload\n        /* \"#utility.yul\":2580:2609   */\n      swap1\n      pop\n        /* \"#utility.yul\":2618:2651   */\n      tag_113\n        /* \"#utility.yul\":2645:2650   */\n      dup2\n        /* \"#utility.yul\":2618:2651   */\n      tag_67\n      jump\t// in\n    tag_113:\n        /* \"#utility.yul\":2518:2657   */\n      swap3\n      swap2\n      pop\n      pop\n      jump\t// out\n        /* \"#utility.yul\":2663:3137   */\n    tag_29:\n        /* \"#utility.yul\":2731:2737   */\n      0x00\n        /* \"#utility.yul\":2739:2745   */\n      0x00\n        /* \"#utility.yul\":2788:2790   */\n      0x40\n        /* \"#utility.yul\":2776:2785   */\n      dup4\n        /* \"#utility.yul\":2767:2774   */\n      dup6\n        /* \"#utility.yul\":2763:2786   */\n      sub\n        /* \"#utility.yul\":2759:2791   */\n      slt\n        /* \"#utility.yul\":2756:2875   */\n      iszero\n      tag_115\n      jumpi\n        /* \"#utility.yul\":2794:2873   */\n      tag_116\n      tag_56\n      jump\t// in\n    tag_116:\n        /* \"#utility.yul\":2756:2875   */\n    tag_115:\n        /* \"#utility.yul\":2914:2915   */\n      0x00\n        /* \"#utility.yul\":2939:2992   */\n      tag_117\n        /* \"#utility.yul\":2984:2991   */\n      dup6\n        /* \"#utility.yul\":2975:2981   */\n      dup3\n        /* \"#utility.yul\":2964:2973   */\n      dup7\n        /* \"#utility.yul\":2960:2982   */\n      add\n        /* \"#utility.yul\":2939:2992   */\n      tag_61\n      jump\t// in\n    tag_117:\n        /* \"#utility.yul\":2929:2992   */\n      swap3\n      pop\n        /* \"#utility.yul\":2885:3002   */\n      pop\n        /* \"#utility.yul\":3041:3043   */\n      0x20\n        /* \"#utility.yul\":3067:3120   */\n      tag_118\n        /* \"#utility.yul\":3112:3119   */\n      dup6\n        /* \"#utility.yul\":3103:3109   */\n      dup3\n        /* \"#utility.yul\":3092:3101   */\n      dup7\n        /* \"#utility.yul\":3088:3110   */\n      add\n        /* \"#utility.yul\":3067:3120   */\n      tag_68\n      jump\t// in\n    tag_118:\n        /* \"#utility.yul\":3057:3120   */\n      swap2\n      pop\n        /* \"#utility.yul\":3012:3130   */\n      pop\n        /* \"#utility.yul\":2663:3137   */\n      swap3\n      pop\n      swap3\n      swap1\n      pop\n      jump\t// out\n        /* \"#utility.yul\":3143:3312   */\n    tag_69:\n        /* \"#utility.yul\":3227:3238   */\n      0x00\n        /* \"#utility.yul\":3261:3267   */\n      dup3\n        /* \"#utility.yul\":3256:3259   */\n      dup3\n        /* \"#utility.yul\":3249:3268   */\n      mstore\n        /* \"#utility.yul\":3301:3305   */\n      0x20\n        /* \"#utility.yul\":3296:3299   */\n      dup3\n        /* \"#utility.yul\":3292:3306   */\n      add\n        /* \"#utility.yul\":3277:3306   */\n      swap1\n      pop\n        /* \"#utility.yul\":3143:3312   */\n      swap3\n      swap2\n      pop\n      pop\n      jump\t// out\n        /* \"#utility.yul\":3318:3489   */\n    tag_70:\n        /* \"#utility.yul\":3458:3481   */\n      0x596f7520617265206e6f7420746865206f776e65720000000000000000000000\n        /* \"#utility.yul\":3454:3455   */\n      0x00\n        /* \"#utility.yul\":3446:3452   */\n      dup3\n        /* \"#utility.yul\":3442:3456   */\n      add\n        /* \"#utility.yul\":3435:3482   */\n      mstore\n        /* \"#utility.yul\":3318:3489   */\n      pop\n      jump\t// out\n        /* \"#utility.yul\":3495:3861   */\n    tag_71:\n        /* \"#utility.yul\":3637:3640   */\n      0x00\n        /* \"#utility.yul\":3658:3725   */\n      tag_122\n        /* \"#utility.yul\":3722:3724   */\n      0x15\n        /* \"#utility.yul\":3717:3720   */\n      dup4\n        /* \"#utility.yul\":3658:3725   */\n      tag_69\n      jump\t// in\n    tag_122:\n        /* \"#utility.yul\":3651:3725   */\n      swap2\n      pop\n        /* \"#utility.yul\":3734:3827   */\n      tag_123\n        /* \"#utility.yul\":3823:3826   */\n      dup3\n        /* \"#utility.yul\":3734:3827   */\n      tag_70\n      jump\t// in\n    tag_123:\n        /* \"#utility.yul\":3852:3854   */\n      0x20\n        /* \"#utility.yul\":3847:3850   */\n      dup3\n        /* \"#utility.yul\":3843:3855   */\n      add\n        /* \"#utility.yul\":3836:3855   */\n      swap1\n      pop\n        /* \"#utility.yul\":3495:3861   */\n      swap2\n      swap1\n      pop\n      jump\t// out\n        /* \"#utility.yul\":3867:4286   */\n    tag_34:\n        /* \"#utility.yul\":4033:4037   */\n      0x00\n        /* \"#utility.yul\":4071:4073   */\n      0x20\n        /* \"#utility.yul\":4060:4069   */\n      dup3\n        /* \"#utility.yul\":4056:4074   */\n      add\n        /* \"#utility.yul\":4048:4074   */\n      swap1\n      pop\n        /* \"#utility.yul\":4120:4129   */\n      dup2\n        /* \"#utility.yul\":4114:4118   */\n      dup2\n        /* \"#utility.yul\":4110:4130   */\n      sub\n        /* \"#utility.yul\":4106:4107   */\n      0x00\n        /* \"#utility.yul\":4095:4104   */\n      dup4\n        /* \"#utility.yul\":4091:4108   */\n      add\n        /* \"#utility.yul\":4084:4131   */\n      mstore\n        /* \"#utility.yul\":4148:4279   */\n      tag_125\n        /* \"#utility.yul\":4274:4278   */\n      dup2\n        /* \"#utility.yul\":4148:4279   */\n      tag_71\n      jump\t// in\n    tag_125:\n        /* \"#utility.yul\":4140:4279   */\n      swap1\n      pop\n        /* \"#utility.yul\":3867:4286   */\n      swap2\n      swap1\n      pop\n      jump\t// out\n        /* \"#utility.yul\":4292:4464   */\n    tag_72:\n        /* \"#utility.yul\":4432:4456   */\n      0x54686520636f6e74726163742069732070617573656400000000000000000000\n        /* \"#utility.yul\":4428:4429   */\n      0x00\n        /* \"#utility.yul\":4420:4426   */\n      dup3\n        /* \"#utility.yul\":4416:4430   */\n      add\n        /* \"#utility.yul\":4409:4457   */\n      mstore\n        /* \"#utility.yul\":4292:4464   */\n      pop\n      jump\t// out\n        /* \"#utility.yul\":4470:4836   */\n    tag_73:\n        /* \"#utility.yul\":4612:4615   */\n      0x00\n        /* \"#utility.yul\":4633:4700   */\n      tag_128\n        /* \"#utility.yul\":4697:4699   */\n      0x16\n        /* \"#utility.yul\":4692:4695   */\n      dup4\n        /* \"#utility.yul\":4633:4700   */\n      tag_69\n      jump\t// in\n    tag_128:\n        /* \"#utility.yul\":4626:4700   */\n      swap2\n      pop\n        /* \"#utility.yul\":4709:4802   */\n      tag_129\n        /* \"#utility.yul\":4798:4801   */\n      dup3\n        /* \"#utility.yul\":4709:4802   */\n      tag_72\n      jump\t// in\n    tag_129:\n        /* \"#utility.yul\":4827:4829   */\n      0x20\n        /* \"#utility.yul\":4822:4825   */\n      dup3\n        /* \"#utility.yul\":4818:4830   */\n      add\n        /* \"#utility.yul\":4811:4830   */\n      swap1\n      pop\n        /* \"#utility.yul\":4470:4836   */\n      swap2\n      swap1\n      pop\n      jump\t// out\n        /* \"#utility.yul\":4842:5261   */\n    tag_43:\n        /* \"#utility.yul\":5008:5012   */\n      0x00\n        /* \"#utility.yul\":5046:5048   */\n      0x20\n        /* \"#utility.yul\":5035:5044   */\n      dup3\n        /* \"#utility.yul\":5031:5049   */\n      add\n        /* \"#utility.yul\":5023:5049   */\n      swap1\n      pop\n        /* \"#utility.yul\":5095:5104   */\n      dup2\n        /* \"#utility.yul\":5089:5093   */\n      dup2\n        /* \"#utility.yul\":5085:5105   */\n      sub\n        /* \"#utility.yul\":5081:5082   */\n      0x00\n        /* \"#utility.yul\":5070:5079   */\n      dup4\n        /* \"#utility.yul\":5066:5083   */\n      add\n        /* \"#utility.yul\":5059:5106   */\n      mstore\n        /* \"#utility.yul\":5123:5254   */\n      tag_131\n        /* \"#utility.yul\":5249:5253   */\n      dup2\n        /* \"#utility.yul\":5123:5254   */\n      tag_73\n      jump\t// in\n    tag_131:\n        /* \"#utility.yul\":5115:5254   */\n      swap1\n      pop\n        /* \"#utility.yul\":4842:5261   */\n      swap2\n      swap1\n      pop\n      jump\t// out\n        /* \"#utility.yul\":5267:5448   */\n    tag_74:\n        /* \"#utility.yul\":5407:5440   */\n      0x596f752063616e74207472616e73616374207769746820796f757273656c6600\n        /* \"#utility.yul\":5403:5404   */\n      0x00\n        /* \"#utility.yul\":5395:5401   */\n      dup3\n        /* \"#utility.yul\":5391:5405   */\n      add\n        /* \"#utility.yul\":5384:5441   */\n      mstore\n        /* \"#utility.yul\":5267:5448   */\n      pop\n      jump\t// out\n        /* \"#utility.yul\":5454:5820   */\n    tag_75:\n        /* \"#utility.yul\":5596:5599   */\n      0x00\n        /* \"#utility.yul\":5617:5684   */\n      tag_134\n        /* \"#utility.yul\":5681:5683   */\n      0x1f\n        /* \"#utility.yul\":5676:5679   */\n      dup4\n        /* \"#utility.yul\":5617:5684   */\n      tag_69\n      jump\t// in\n    tag_134:\n        /* \"#utility.yul\":5610:5684   */\n      swap2\n      pop\n        /* \"#utility.yul\":5693:5786   */\n      tag_135\n        /* \"#utility.yul\":5782:5785   */\n      dup3\n        /* \"#utility.yul\":5693:5786   */\n      tag_74\n      jump\t// in\n    tag_135:\n        /* \"#utility.yul\":5811:5813   */\n      0x20\n        /* \"#utility.yul\":5806:5809   */\n      dup3\n        /* \"#utility.yul\":5802:5814   */\n      add\n        /* \"#utility.yul\":5795:5814   */\n      swap1\n      pop\n        /* \"#utility.yul\":5454:5820   */\n      swap2\n      swap1\n      pop\n      jump\t// out\n        /* \"#utility.yul\":5826:6245   */\n    tag_47:\n        /* \"#utility.yul\":5992:5996   */\n      0x00\n        /* \"#utility.yul\":6030:6032   */\n      0x20\n        /* \"#utility.yul\":6019:6028   */\n      dup3\n        /* \"#utility.yul\":6015:6033   */\n      add\n        /* \"#utility.yul\":6007:6033   */\n      swap1\n      pop\n        /* \"#utility.yul\":6079:6088   */\n      dup2\n        /* \"#utility.yul\":6073:6077   */\n      dup2\n        /* \"#utility.yul\":6069:6089   */\n      sub\n        /* \"#utility.yul\":6065:6066   */\n      0x00\n        /* \"#utility.yul\":6054:6063   */\n      dup4\n        /* \"#utility.yul\":6050:6067   */\n      add\n        /* \"#utility.yul\":6043:6090   */\n      mstore\n        /* \"#utility.yul\":6107:6238   */\n      tag_137\n        /* \"#utility.yul\":6233:6237   */\n      dup2\n        /* \"#utility.yul\":6107:6238   */\n      tag_75\n      jump\t// in\n    tag_137:\n        /* \"#utility.yul\":6099:6238   */\n      swap1\n      pop\n        /* \"#utility.yul\":5826:6245   */\n      swap2\n      swap1\n      pop\n      jump\t// out\n        /* \"#utility.yul\":6251:6420   */\n    tag_76:\n        /* \"#utility.yul\":6391:6412   */\n      0x496e737566696369656e742062616c616e636500000000000000000000000000\n        /* \"#utility.yul\":6387:6388   */\n      0x00\n        /* \"#utility.yul\":6379:6385   */\n      dup3\n        /* \"#utility.yul\":6375:6389   */\n      add\n        /* \"#utility.yul\":6368:6413   */\n      mstore\n        /* \"#utility.yul\":6251:6420   */\n      pop\n      jump\t// out\n        /* \"#utility.yul\":6426:6792   */\n    tag_77:\n        /* \"#utility.yul\":6568:6571   */\n      0x00\n        /* \"#utility.yul\":6589:6656   */\n      tag_140\n        /* \"#utility.yul\":6653:6655   */\n      0x13\n        /* \"#utility.yul\":6648:6651   */\n      dup4\n        /* \"#utility.yul\":6589:6656   */\n      tag_69\n      jump\t// in\n    tag_140:\n        /* \"#utility.yul\":6582:6656   */\n      swap2\n      pop\n        /* \"#utility.yul\":6665:6758   */\n      tag_141\n        /* \"#utility.yul\":6754:6757   */\n      dup3\n        /* \"#utility.yul\":6665:6758   */\n      tag_76\n      jump\t// in\n    tag_141:\n        /* \"#utility.yul\":6783:6785   */\n      0x20\n        /* \"#utility.yul\":6778:6781   */\n      dup3\n        /* \"#utility.yul\":6774:6786   */\n      add\n        /* \"#utility.yul\":6767:6786   */\n      swap1\n      pop\n        /* \"#utility.yul\":6426:6792   */\n      swap2\n      swap1\n      pop\n      jump\t// out\n        /* \"#utility.yul\":6798:7217   */\n    tag_50:\n        /* \"#utility.yul\":6964:6968   */\n      0x00\n        /* \"#utility.yul\":7002:7004   */\n      0x20\n        /* \"#utility.yul\":6991:7000   */\n      dup3\n        /* \"#utility.yul\":6987:7005   */\n      add\n        /* \"#utility.yul\":6979:7005   */\n      swap1\n      pop\n        /* \"#utility.yul\":7051:7060   */\n      dup2\n        /* \"#utility.yul\":7045:7049   */\n      dup2\n        /* \"#utility.yul\":7041:7061   */\n      sub\n        /* \"#utility.yul\":7037:7038   */\n      0x00\n        /* \"#utility.yul\":7026:7035   */\n      dup4\n        /* \"#utility.yul\":7022:7039   */\n      add\n        /* \"#utility.yul\":7015:7062   */\n      mstore\n        /* \"#utility.yul\":7079:7210   */\n      tag_143\n        /* \"#utility.yul\":7205:7209   */\n      dup2\n        /* \"#utility.yul\":7079:7210   */\n      tag_77\n      jump\t// in\n    tag_143:\n        /* \"#utility.yul\":7071:7210   */\n      swap1\n      pop\n        /* \"#utility.yul\":6798:7217   */\n      swap2\n      swap1\n      pop\n      jump\t// out\n        /* \"#utility.yul\":7223:7403   */\n    tag_78:\n        /* \"#utility.yul\":7271:7348   */\n      0x4e487b7100000000000000000000000000000000000000000000000000000000\n        /* \"#utility.yul\":7268:7269   */\n      0x00\n        /* \"#utility.yul\":7261:7349   */\n      mstore\n        /* \"#utility.yul\":7368:7372   */\n      0x11\n        /* \"#utility.yul\":7365:7366   */\n      0x04\n        /* \"#utility.yul\":7358:7373   */\n      mstore\n        /* \"#utility.yul\":7392:7396   */\n      0x24\n        /* \"#utility.yul\":7389:7390   */\n      0x00\n        /* \"#utility.yul\":7382:7397   */\n      revert\n        /* \"#utility.yul\":7409:7603   */\n    tag_52:\n        /* \"#utility.yul\":7449:7453   */\n      0x00\n        /* \"#utility.yul\":7469:7489   */\n      tag_146\n        /* \"#utility.yul\":7487:7488   */\n      dup3\n        /* \"#utility.yul\":7469:7489   */\n      tag_62\n      jump\t// in\n    tag_146:\n        /* \"#utility.yul\":7464:7489   */\n      swap2\n      pop\n        /* \"#utility.yul\":7503:7523   */\n      tag_147\n        /* \"#utility.yul\":7521:7522   */\n      dup4\n        /* \"#utility.yul\":7503:7523   */\n      tag_62\n      jump\t// in\n    tag_147:\n        /* \"#utility.yul\":7498:7523   */\n      swap3\n      pop\n        /* \"#utility.yul\":7547:7548   */\n      dup3\n        /* \"#utility.yul\":7544:7545   */\n      dup3\n        /* \"#utility.yul\":7540:7549   */\n      sub\n        /* \"#utility.yul\":7532:7549   */\n      swap1\n      pop\n        /* \"#utility.yul\":7571:7572   */\n      dup2\n        /* \"#utility.yul\":7565:7569   */\n      dup2\n        /* \"#utility.yul\":7562:7573   */\n      gt\n        /* \"#utility.yul\":7559:7596   */\n      iszero\n      tag_148\n      jumpi\n        /* \"#utility.yul\":7576:7594   */\n      tag_149\n      tag_78\n      jump\t// in\n    tag_149:\n        /* \"#utility.yul\":7559:7596   */\n    tag_148:\n        /* \"#utility.yul\":7409:7603   */\n      swap3\n      swap2\n      pop\n      pop\n      jump\t// out\n        /* \"#utility.yul\":7609:7800   */\n    tag_54:\n        /* \"#utility.yul\":7649:7652   */\n      0x00\n        /* \"#utility.yul\":7668:7688   */\n      tag_151\n        /* \"#utility.yul\":7686:7687   */\n      dup3\n        /* \"#utility.yul\":7668:7688   */\n      tag_62\n      jump\t// in\n    tag_151:\n        /* \"#utility.yul\":7663:7688   */\n      swap2\n      pop\n        /* \"#utility.yul\":7702:7722   */\n      tag_152\n        /* \"#utility.yul\":7720:7721   */\n      dup4\n        /* \"#utility.yul\":7702:7722   */\n      tag_62\n      jump\t// in\n    tag_152:\n        /* \"#utility.yul\":7697:7722   */\n      swap3\n      pop\n        /* \"#utility.yul\":7745:7746   */\n      dup3\n        /* \"#utility.yul\":7742:7743   */\n      dup3\n        /* \"#utility.yul\":7738:7747   */\n      add\n        /* \"#utility.yul\":7731:7747   */\n      swap1\n      pop\n        /* \"#utility.yul\":7766:7769   */\n      dup1\n        /* \"#utility.yul\":7763:7764   */\n      dup3\n        /* \"#utility.yul\":7760:7770   */\n      gt\n        /* \"#utility.yul\":7757:7793   */\n      iszero\n      tag_153\n      jumpi\n        /* \"#utility.yul\":7773:7791   */\n      tag_154\n      tag_78\n      jump\t// in\n    tag_154:\n        /* \"#utility.yul\":7757:7793   */\n    tag_153:\n        /* \"#utility.yul\":7609:7800   */\n      swap3\n      swap2\n      pop\n      pop\n      jump\t// out\n\n    auxdata: 0xa26469706673582212204fbf8ea0681059f43c1267ecfd775eb32348499ec5c2ebd9640b086e73919c2964736f6c634300081d0033\n}\n",
				"bytecode": {
					"linkReferences": {},
					"object": "6080604052348015600e575f5ffd5b50335f5f6101000a81548173ffffffffffffffffffffffffffffffffffffffff021916908373ffffffffffffffffffffffffffffffffffffffff1602179055505f5f60146101000a81548160ff0219169083151502179055506103e860015f5f5f9054906101000a900473ffffffffffffffffffffffffffffffffffffffff1673ffffffffffffffffffffffffffffffffffffffff1673ffffffffffffffffffffffffffffffffffffffff1681526020019081526020015f2081905550610880806100d85f395ff3fe608060405234801561000f575f5ffd5b5060043610610060575f3560e01c806327e235e3146100645780633f4ba83a146100945780635c975abb1461009e5780638456cb59146100bc5780638da5cb5b146100c6578063a9059cbb146100e4575b5f5ffd5b61007e600480360381019061007991906104e8565b610100565b60405161008b919061052b565b60405180910390f35b61009c610115565b005b6100a66101be565b6040516100b3919061055e565b60405180910390f35b6100c46101d0565b005b6100ce61027a565b6040516100db9190610586565b60405180910390f35b6100fe60048036038101906100f991906105c9565b61029e565b005b6001602052805f5260405f205f915090505481565b5f5f9054906101000a900473ffffffffffffffffffffffffffffffffffffffff1673ffffffffffffffffffffffffffffffffffffffff163373ffffffffffffffffffffffffffffffffffffffff16146101a3576040517f08c379a000000000000000000000000000000000000000000000000000000000815260040161019a90610661565b60405180910390fd5b5f5f60146101000a81548160ff021916908315150217905550565b5f60149054906101000a900460ff1681565b5f5f9054906101000a900473ffffffffffffffffffffffffffffffffffffffff1673ffffffffffffffffffffffffffffffffffffffff163373ffffffffffffffffffffffffffffffffffffffff161461025e576040517f08c379a000000000000000000000000000000000000000000000000000000000815260040161025590610661565b60405180910390fd5b60015f60146101000a81548160ff021916908315150217905550565b5f5f9054906101000a900473ffffffffffffffffffffffffffffffffffffffff1681565b5f15155f60149054906101000a900460ff161515146102f2576040517f08c379a00000000000000000000000000000000000000000000000000000000081526004016102e9906106c9565b60405180910390fd5b8173ffffffffffffffffffffffffffffffffffffffff163373ffffffffffffffffffffffffffffffffffffffff1603610360576040517f08c379a000000000000000000000000000000000000000000000000000000000815260040161035790610731565b60405180910390fd5b8060015f3373ffffffffffffffffffffffffffffffffffffffff1673ffffffffffffffffffffffffffffffffffffffff1681526020019081526020015f205410156103e0576040517f08c379a00000000000000000000000000000000000000000000000000000000081526004016103d790610799565b60405180910390fd5b8060015f3373ffffffffffffffffffffffffffffffffffffffff1673ffffffffffffffffffffffffffffffffffffffff1681526020019081526020015f205f82825461042c91906107e4565b925050819055508060015f8473ffffffffffffffffffffffffffffffffffffffff1673ffffffffffffffffffffffffffffffffffffffff1681526020019081526020015f205f82825461047f9190610817565b925050819055505050565b5f5ffd5b5f73ffffffffffffffffffffffffffffffffffffffff82169050919050565b5f6104b78261048e565b9050919050565b6104c7816104ad565b81146104d1575f5ffd5b50565b5f813590506104e2816104be565b92915050565b5f602082840312156104fd576104fc61048a565b5b5f61050a848285016104d4565b91505092915050565b5f819050919050565b61052581610513565b82525050565b5f60208201905061053e5f83018461051c565b92915050565b5f8115159050919050565b61055881610544565b82525050565b5f6020820190506105715f83018461054f565b92915050565b610580816104ad565b82525050565b5f6020820190506105995f830184610577565b92915050565b6105a881610513565b81146105b2575f5ffd5b50565b5f813590506105c38161059f565b92915050565b5f5f604083850312156105df576105de61048a565b5b5f6105ec858286016104d4565b92505060206105fd858286016105b5565b9150509250929050565b5f82825260208201905092915050565b7f596f7520617265206e6f7420746865206f776e657200000000000000000000005f82015250565b5f61064b601583610607565b915061065682610617565b602082019050919050565b5f6020820190508181035f8301526106788161063f565b9050919050565b7f54686520636f6e747261637420697320706175736564000000000000000000005f82015250565b5f6106b3601683610607565b91506106be8261067f565b602082019050919050565b5f6020820190508181035f8301526106e0816106a7565b9050919050565b7f596f752063616e74207472616e73616374207769746820796f757273656c66005f82015250565b5f61071b601f83610607565b9150610726826106e7565b602082019050919050565b5f6020820190508181035f8301526107488161070f565b9050919050565b7f496e737566696369656e742062616c616e6365000000000000000000000000005f82015250565b5f610783601383610607565b915061078e8261074f565b602082019050919050565b5f6020820190508181035f8301526107b081610777565b9050919050565b7f4e487b71000000000000000000000000000000000000000000000000000000005f52601160045260245ffd5b5f6107ee82610513565b91506107f983610513565b9250828203905081811115610811576108106107b7565b5b92915050565b5f61082182610513565b915061082c83610513565b9250828201905080821115610844576108436107b7565b5b9291505056fea26469706673582212204fbf8ea0681059f43c1267ecfd775eb32348499ec5c2ebd9640b086e73919c2964736f6c634300081d0033",
					"opcodes": "PUSH1 0x80 PUSH1 0x40 MSTORE CALLVALUE DUP1 ISZERO PUSH1 0xE JUMPI PUSH0 PUSH0 REVERT JUMPDEST POP CALLER PUSH0 PUSH0 PUSH2 0x100 EXP DUP2 SLOAD DUP2 PUSH20 0xFFFFFFFFFFFFFFFFFFFFFFFFFFFFFFFFFFFFFFFF MUL NOT AND SWAP1 DUP4 PUSH20 0xFFFFFFFFFFFFFFFFFFFFFFFFFFFFFFFFFFFFFFFF AND MUL OR SWAP1 SSTORE POP PUSH0 PUSH0 PUSH1 0x14 PUSH2 0x100 EXP DUP2 SLOAD DUP2 PUSH1 0xFF MUL NOT AND SWAP1 DUP4 ISZERO ISZERO MUL OR SWAP1 SSTORE POP PUSH2 0x3E8 PUSH1 0x1 PUSH0 PUSH0 PUSH0 SWAP1 SLOAD SWAP1 PUSH2 0x100 EXP SWAP1 DIV PUSH20 0xFFFFFFFFFFFFFFFFFFFFFFFFFFFFFFFFFFFFFFFF AND PUSH20 0xFFFFFFFFFFFFFFFFFFFFFFFFFFFFFFFFFFFFFFFF AND PUSH20 0xFFFFFFFFFFFFFFFFFFFFFFFFFFFFFFFFFFFFFFFF AND DUP2 MSTORE PUSH1 0x20 ADD SWAP1 DUP2 MSTORE PUSH1 0x20 ADD PUSH0 KECCAK256 DUP2 SWAP1 SSTORE POP PUSH2 0x880 DUP1 PUSH2 0xD8 PUSH0 CODECOPY PUSH0 RETURN INVALID PUSH1 0x80 PUSH1 0x40 MSTORE CALLVALUE DUP1 ISZERO PUSH2 0xF JUMPI PUSH0 PUSH0 REVERT JUMPDEST POP PUSH1 0x4 CALLDATASIZE LT PUSH2 0x60 JUMPI PUSH0 CALLDATALOAD PUSH1 0xE0 SHR DUP1 PUSH4 0x27E235E3 EQ PUSH2 0x64 JUMPI DUP1 PUSH4 0x3F4BA83A EQ PUSH2 0x94 JUMPI DUP1 PUSH4 0x5C975ABB EQ PUSH2 0x9E JUMPI DUP1 PUSH4 0x8456CB59 EQ PUSH2 0xBC JUMPI DUP1 PUSH4 0x8DA5CB5B EQ PUSH2 0xC6 JUMPI DUP1 PUSH4 0xA9059CBB EQ PUSH2 0xE4 JUMPI JUMPDEST PUSH0 PUSH0 REVERT JUMPDEST PUSH2 0x7E PUSH1 0x4 DUP1 CALLDATASIZE SUB DUP2 ADD SWAP1 PUSH2 0x79 SWAP2 SWAP1 PUSH2 0x4E8 JUMP JUMPDEST PUSH2 0x100 JUMP JUMPDEST PUSH1 0x40 MLOAD PUSH2 0x8B SWAP2 SWAP1 PUSH2 0x52B JUMP JUMPDEST PUSH1 0x40 MLOAD DUP1 SWAP2 SUB SWAP1 RETURN JUMPDEST PUSH2 0x9C PUSH2 0x115 JUMP JUMPDEST STOP JUMPDEST PUSH2 0xA6 PUSH2 0x1BE JUMP JUMPDEST PUSH1 0x40 MLOAD PUSH2 0xB3 SWAP2 SWAP1 PUSH2 0x55E JUMP JUMPDEST PUSH1 0x40 MLOAD DUP1 SWAP2 SUB SWAP1 RETURN JUMPDEST PUSH2 0xC4 PUSH2 0x1D0 JUMP JUMPDEST STOP JUMPDEST PUSH2 0xCE PUSH2 0x27A JUMP JUMPDEST PUSH1 0x40 MLOAD PUSH2 0xDB SWAP2 SWAP1 PUSH2 0x586 JUMP JUMPDEST PUSH1 0x40 MLOAD DUP1 SWAP2 SUB SWAP1 RETURN JUMPDEST PUSH2 0xFE PUSH1 0x4 DUP1 CALLDATASIZE SUB DUP2 ADD SWAP1 PUSH2 0xF9 SWAP2 SWAP1 PUSH2 0x5C9 JUMP JUMPDEST PUSH2 0x29E JUMP JUMPDEST STOP JUMPDEST PUSH1 0x1 PUSH1 0x20 MSTORE DUP1 PUSH0 MSTORE PUSH1 0x40 PUSH0 KECCAK256 PUSH0 SWAP2 POP SWAP1 POP SLOAD DUP2 JUMP JUMPDEST PUSH0 PUSH0 SWAP1 SLOAD SWAP1 PUSH2 0x100 EXP SWAP1 DIV PUSH20 0xFFFFFFFFFFFFFFFFFFFFFFFFFFFFFFFFFFFFFFFF AND PUSH20 0xFFFFFFFFFFFFFFFFFFFFFFFFFFFFFFFFFFFFFFFF AND CALLER PUSH20 0xFFFFFFFFFFFFFFFFFFFFFFFFFFFFFFFFFFFFFFFF AND EQ PUSH2 0x1A3 JUMPI PUSH1 0x40 MLOAD PUSH32 0x8C379A000000000000000000000000000000000000000000000000000000000 DUP2 MSTORE PUSH1 0x4 ADD PUSH2 0x19A SWAP1 PUSH2 0x661 JUMP JUMPDEST PUSH1 0x40 MLOAD DUP1 SWAP2 SUB SWAP1 REVERT JUMPDEST PUSH0 PUSH0 PUSH1 0x14 PUSH2 0x100 EXP DUP2 SLOAD DUP2 PUSH1 0xFF MUL NOT AND SWAP1 DUP4 ISZERO ISZERO MUL OR SWAP1 SSTORE POP JUMP JUMPDEST PUSH0 PUSH1 0x14 SWAP1 SLOAD SWAP1 PUSH2 0x100 EXP SWAP1 DIV PUSH1 0xFF AND DUP2 JUMP JUMPDEST PUSH0 PUSH0 SWAP1 SLOAD SWAP1 PUSH2 0x100 EXP SWAP1 DIV PUSH20 0xFFFFFFFFFFFFFFFFFFFFFFFFFFFFFFFFFFFFFFFF AND PUSH20 0xFFFFFFFFFFFFFFFFFFFFFFFFFFFFFFFFFFFFFFFF AND CALLER PUSH20 0xFFFFFFFFFFFFFFFFFFFFFFFFFFFFFFFFFFFFFFFF AND EQ PUSH2 0x25E JUMPI PUSH1 0x40 MLOAD PUSH32 0x8C379A000000000000000000000000000000000000000000000000000000000 DUP2 MSTORE PUSH1 0x4 ADD PUSH2 0x255 SWAP1 PUSH2 0x661 JUMP JUMPDEST PUSH1 0x40 MLOAD DUP1 SWAP2 SUB SWAP1 REVERT JUMPDEST PUSH1 0x1 PUSH0 PUSH1 0x14 PUSH2 0x100 EXP DUP2 SLOAD DUP2 PUSH1 0xFF MUL NOT AND SWAP1 DUP4 ISZERO ISZERO MUL OR SWAP1 SSTORE POP JUMP JUMPDEST PUSH0 PUSH0 SWAP1 SLOAD SWAP1 PUSH2 0x100 EXP SWAP1 DIV PUSH20 0xFFFFFFFFFFFFFFFFFFFFFFFFFFFFFFFFFFFFFFFF AND DUP2 JUMP JUMPDEST PUSH0 ISZERO ISZERO PUSH0 PUSH1 0x14 SWAP1 SLOAD SWAP1 PUSH2 0x100 EXP SWAP1 DIV PUSH1 0xFF AND ISZERO ISZERO EQ PUSH2 0x2F2 JUMPI PUSH1 0x40 MLOAD PUSH32 0x8C379A000000000000000000000000000000000000000000000000000000000 DUP2 MSTORE PUSH1 0x4 ADD PUSH2 0x2E9 SWAP1 PUSH2 0x6C9 JUMP JUMPDEST PUSH1 0x40 MLOAD DUP1 SWAP2 SUB SWAP1 REVERT JUMPDEST DUP2 PUSH20 0xFFFFFFFFFFFFFFFFFFFFFFFFFFFFFFFFFFFFFFFF AND CALLER PUSH20 0xFFFFFFFFFFFFFFFFFFFFFFFFFFFFFFFFFFFFFFFF AND SUB PUSH2 0x360 JUMPI PUSH1 0x40 MLOAD PUSH32 0x8C379A000000000000000000000000000000000000000000000000000000000 DUP2 MSTORE PUSH1 0x4 ADD PUSH2 0x357 SWAP1 PUSH2 0x731 JUMP JUMPDEST PUSH1 0x40 MLOAD DUP1 SWAP2 SUB SWAP1 REVERT JUMPDEST DUP1 PUSH1 0x1 PUSH0 CALLER PUSH20 0xFFFFFFFFFFFFFFFFFFFFFFFFFFFFFFFFFFFFFFFF AND PUSH20 0xFFFFFFFFFFFFFFFFFFFFFFFFFFFFFFFFFFFFFFFF AND DUP2 MSTORE PUSH1 0x20 ADD SWAP1 DUP2 MSTORE PUSH1 0x20 ADD PUSH0 KECCAK256 SLOAD LT ISZERO PUSH2 0x3E0 JUMPI PUSH1 0x40 MLOAD PUSH32 0x8C379A000000000000000000000000000000000000000000000000000000000 DUP2 MSTORE PUSH1 0x4 ADD PUSH2 0x3D7 SWAP1 PUSH2 0x799 JUMP JUMPDEST PUSH1 0x40 MLOAD DUP1 SWAP2 SUB SWAP1 REVERT JUMPDEST DUP1 PUSH1 0x1 PUSH0 CALLER PUSH20 0xFFFFFFFFFFFFFFFFFFFFFFFFFFFFFFFFFFFFFFFF AND PUSH20 0xFFFFFFFFFFFFFFFFFFFFFFFFFFFFFFFFFFFFFFFF AND DUP2 MSTORE PUSH1 0x20 ADD SWAP1 DUP2 MSTORE PUSH1 0x20 ADD PUSH0 KECCAK256 PUSH0 DUP3 DUP3 SLOAD PUSH2 0x42C SWAP2 SWAP1 PUSH2 0x7E4 JUMP JUMPDEST SWAP3 POP POP DUP2 SWAP1 SSTORE POP DUP1 PUSH1 0x1 PUSH0 DUP5 PUSH20 0xFFFFFFFFFFFFFFFFFFFFFFFFFFFFFFFFFFFFFFFF AND PUSH20 0xFFFFFFFFFFFFFFFFFFFFFFFFFFFFFFFFFFFFFFFF AND DUP2 MSTORE PUSH1 0x20 ADD SWAP1 DUP2 MSTORE PUSH1 0x20 ADD PUSH0 KECCAK256 PUSH0 DUP3 DUP3 SLOAD PUSH2 0x47F SWAP2 SWAP1 PUSH2 0x817 JUMP JUMPDEST SWAP3 POP POP DUP2 SWAP1 SSTORE POP POP POP JUMP JUMPDEST PUSH0 PUSH0 REVERT JUMPDEST PUSH0 PUSH20 0xFFFFFFFFFFFFFFFFFFFFFFFFFFFFFFFFFFFFFFFF DUP3 AND SWAP1 POP SWAP2 SWAP1 POP JUMP JUMPDEST PUSH0 PUSH2 0x4B7 DUP3 PUSH2 0x48E JUMP JUMPDEST SWAP1 POP SWAP2 SWAP1 POP JUMP JUMPDEST PUSH2 0x4C7 DUP2 PUSH2 0x4AD JUMP JUMPDEST DUP2 EQ PUSH2 0x4D1 JUMPI PUSH0 PUSH0 REVERT JUMPDEST POP JUMP JUMPDEST PUSH0 DUP2 CALLDATALOAD SWAP1 POP PUSH2 0x4E2 DUP2 PUSH2 0x4BE JUMP JUMPDEST SWAP3 SWAP2 POP POP JUMP JUMPDEST PUSH0 PUSH1 0x20 DUP3 DUP5 SUB SLT ISZERO PUSH2 0x4FD JUMPI PUSH2 0x4FC PUSH2 0x48A JUMP JUMPDEST JUMPDEST PUSH0 PUSH2 0x50A DUP5 DUP3 DUP6 ADD PUSH2 0x4D4 JUMP JUMPDEST SWAP2 POP POP SWAP3 SWAP2 POP POP JUMP JUMPDEST PUSH0 DUP2 SWAP1 POP SWAP2 SWAP1 POP JUMP JUMPDEST PUSH2 0x525 DUP2 PUSH2 0x513 JUMP JUMPDEST DUP3 MSTORE POP POP JUMP JUMPDEST PUSH0 PUSH1 0x20 DUP3 ADD SWAP1 POP PUSH2 0x53E PUSH0 DUP4 ADD DUP5 PUSH2 0x51C JUMP JUMPDEST SWAP3 SWAP2 POP POP JUMP JUMPDEST PUSH0 DUP2 ISZERO ISZERO SWAP1 POP SWAP2 SWAP1 POP JUMP JUMPDEST PUSH2 0x558 DUP2 PUSH2 0x544 JUMP JUMPDEST DUP3 MSTORE POP POP JUMP JUMPDEST PUSH0 PUSH1 0x20 DUP3 ADD SWAP1 POP PUSH2 0x571 PUSH0 DUP4 ADD DUP5 PUSH2 0x54F JUMP JUMPDEST SWAP3 SWAP2 POP POP JUMP JUMPDEST PUSH2 0x580 DUP2 PUSH2 0x4AD JUMP JUMPDEST DUP3 MSTORE POP POP JUMP JUMPDEST PUSH0 PUSH1 0x20 DUP3 ADD SWAP1 POP PUSH2 0x599 PUSH0 DUP4 ADD DUP5 PUSH2 0x577 JUMP JUMPDEST SWAP3 SWAP2 POP POP JUMP JUMPDEST PUSH2 0x5A8 DUP2 PUSH2 0x513 JUMP JUMPDEST DUP2 EQ PUSH2 0x5B2 JUMPI PUSH0 PUSH0 REVERT JUMPDEST POP JUMP JUMPDEST PUSH0 DUP2 CALLDATALOAD SWAP1 POP PUSH2 0x5C3 DUP2 PUSH2 0x59F JUMP JUMPDEST SWAP3 SWAP2 POP POP JUMP JUMPDEST PUSH0 PUSH0 PUSH1 0x40 DUP4 DUP6 SUB SLT ISZERO PUSH2 0x5DF JUMPI PUSH2 0x5DE PUSH2 0x48A JUMP JUMPDEST JUMPDEST PUSH0 PUSH2 0x5EC DUP6 DUP3 DUP7 ADD PUSH2 0x4D4 JUMP JUMPDEST SWAP3 POP POP PUSH1 0x20 PUSH2 0x5FD DUP6 DUP3 DUP7 ADD PUSH2 0x5B5 JUMP JUMPDEST SWAP2 POP POP SWAP3 POP SWAP3 SWAP1 POP JUMP JUMPDEST PUSH0 DUP3 DUP3 MSTORE PUSH1 0x20 DUP3 ADD SWAP1 POP SWAP3 SWAP2 POP POP JUMP JUMPDEST PUSH32 0x596F7520617265206E6F7420746865206F776E65720000000000000000000000 PUSH0 DUP3 ADD MSTORE POP JUMP JUMPDEST PUSH0 PUSH2 0x64B PUSH1 0x15 DUP4 PUSH2 0x607 JUMP JUMPDEST SWAP2 POP PUSH2 0x656 DUP3 PUSH2 0x617 JUMP JUMPDEST PUSH1 0x20 DUP3 ADD SWAP1 POP SWAP2 SWAP1 POP JUMP JUMPDEST PUSH0 PUSH1 0x20 DUP3 ADD SWAP1 POP DUP2 DUP2 SUB PUSH0 DUP4 ADD MSTORE PUSH2 0x678 DUP2 PUSH2 0x63F JUMP JUMPDEST SWAP1 POP SWAP2 SWAP1 POP JUMP JUMPDEST PUSH32 0x54686520636F6E74726163742069732070617573656400000000000000000000 PUSH0 DUP3 ADD MSTORE POP JUMP JUMPDEST PUSH0 PUSH2 0x6B3 PUSH1 0x16 DUP4 PUSH2 0x607 JUMP JUMPDEST SWAP2 POP PUSH2 0x6BE DUP3 PUSH2 0x67F JUMP JUMPDEST PUSH1 0x20 DUP3 ADD SWAP1 POP SWAP2 SWAP1 POP JUMP JUMPDEST PUSH0 PUSH1 0x20 DUP3 ADD SWAP1 POP DUP2 DUP2 SUB PUSH0 DUP4 ADD MSTORE PUSH2 0x6E0 DUP2 PUSH2 0x6A7 JUMP JUMPDEST SWAP1 POP SWAP2 SWAP1 POP JUMP JUMPDEST PUSH32 0x596F752063616E74207472616E73616374207769746820796F757273656C6600 PUSH0 DUP3 ADD MSTORE POP JUMP JUMPDEST PUSH0 PUSH2 0x71B PUSH1 0x1F DUP4 PUSH2 0x607 JUMP JUMPDEST SWAP2 POP PUSH2 0x726 DUP3 PUSH2 0x6E7 JUMP JUMPDEST PUSH1 0x20 DUP3 ADD SWAP1 POP SWAP2 SWAP1 POP JUMP JUMPDEST PUSH0 PUSH1 0x20 DUP3 ADD SWAP1 POP DUP2 DUP2 SUB PUSH0 DUP4 ADD MSTORE PUSH2 0x748 DUP2 PUSH2 0x70F JUMP JUMPDEST SWAP1 POP SWAP2 SWAP1 POP JUMP JUMPDEST PUSH32 0x496E737566696369656E742062616C616E636500000000000000000000000000 PUSH0 DUP3 ADD MSTORE POP JUMP JUMPDEST PUSH0 PUSH2 0x783 PUSH1 0x13 DUP4 PUSH2 0x607 JUMP JUMPDEST SWAP2 POP PUSH2 0x78E DUP3 PUSH2 0x74F JUMP JUMPDEST PUSH1 0x20 DUP3 ADD SWAP1 POP SWAP2 SWAP1 POP JUMP JUMPDEST PUSH0 PUSH1 0x20 DUP3 ADD SWAP1 POP DUP2 DUP2 SUB PUSH0 DUP4 ADD MSTORE PUSH2 0x7B0 DUP2 PUSH2 0x777 JUMP JUMPDEST SWAP1 POP SWAP2 SWAP1 POP JUMP JUMPDEST PUSH32 0x4E487B7100000000000000000000000000000000000000000000000000000000 PUSH0 MSTORE PUSH1 0x11 PUSH1 0x4 MSTORE PUSH1 0x24 PUSH0 REVERT JUMPDEST PUSH0 PUSH2 0x7EE DUP3 PUSH2 0x513 JUMP JUMPDEST SWAP2 POP PUSH2 0x7F9 DUP4 PUSH2 0x513 JUMP JUMPDEST SWAP3 POP DUP3 DUP3 SUB SWAP1 POP DUP2 DUP2 GT ISZERO PUSH2 0x811 JUMPI PUSH2 0x810 PUSH2 0x7B7 JUMP JUMPDEST JUMPDEST SWAP3 SWAP2 POP POP JUMP JUMPDEST PUSH0 PUSH2 0x821 DUP3 PUSH2 0x513 JUMP JUMPDEST SWAP2 POP PUSH2 0x82C DUP4 PUSH2 0x513 JUMP JUMPDEST SWAP3 POP DUP3 DUP3 ADD SWAP1 POP DUP1 DUP3 GT ISZERO PUSH2 0x844 JUMPI PUSH2 0x843 PUSH2 0x7B7 JUMP JUMPDEST JUMPDEST SWAP3 SWAP2 POP POP JUMP INVALID LOG2 PUSH5 0x6970667358 0x22 SLT KECCAK256 0x4F 0xBF DUP15 LOG0 PUSH9 0x1059F43C1267ECFD77 MCOPY 0xB3 0x23 BASEFEE BLOBHASH SWAP15 0xC5 0xC2 0xEB 0xD9 PUSH5 0xB086E7391 SWAP13 0x29 PUSH5 0x736F6C6343 STOP ADDMOD SAR STOP CALLER "
				},
				"gasEstimates": {
					"creation": {
						"codeDepositCost": "435200",
						"executionCost": "73381",
						"totalCost": "508581"
					},
					"external": {
						"balances(address)": "2780",
						"owner()": "2573",
						"pause()": "26671",
						"paused()": "2538",
						"transfer(address,uint256)": "infinite",
						"unpause()": "26626"
					}
				},
				"methodIdentifiers": {
					"balances(address)": "27e235e3",
					"owner()": "8da5cb5b",
					"pause()": "8456cb59",
					"paused()": "5c975abb",
					"transfer(address,uint256)": "a9059cbb",
					"unpause()": "3f4ba83a"
				}
			},
			"storageLayout": {
				"storage": [
					{
						"astId": 3,
						"contract": "Learning-Solidity/contracts/Modifiers.sol:PausableToken",
						"label": "owner",
						"offset": 0,
						"slot": "0",
						"type": "t_address"
					},
					{
						"astId": 5,
						"contract": "Learning-Solidity/contracts/Modifiers.sol:PausableToken",
						"label": "paused",
						"offset": 20,
						"slot": "0",
						"type": "t_bool"
					},
					{
						"astId": 9,
						"contract": "Learning-Solidity/contracts/Modifiers.sol:PausableToken",
						"label": "balances",
						"offset": 0,
						"slot": "1",
						"type": "t_mapping(t_address,t_uint256)"
					}
				],
				"types": {
					"t_address": {
						"encoding": "inplace",
						"label": "address",
						"numberOfBytes": "20"
					},
					"t_bool": {
						"encoding": "inplace",
						"label": "bool",
						"numberOfBytes": "1"
					},
					"t_mapping(t_address,t_uint256)": {
						"encoding": "mapping",
						"key": "t_address",
						"label": "mapping(address => uint256)",
						"numberOfBytes": "32",
						"value": "t_uint256"
					},
					"t_uint256": {
						"encoding": "inplace",
						"label": "uint256",
						"numberOfBytes": "32"
					}
				}
			},
			"userdoc": {
				"kind": "user",
				"methods": {},
				"version": 1
			}
		}
	}
}